{
  "address": "0x5FbDB2315678afecb367f032d93F642f64180aa3",
  "abi": [
    {
      "inputs": [
        {
          "internalType": "string",
          "name": "nftCollectionName",
          "type": "string"
        },
        {
          "internalType": "string",
          "name": "nftCollectionSymbol",
          "type": "string"
        },
        {
          "internalType": "address payable",
          "name": "creator",
          "type": "address"
        }
      ],
      "stateMutability": "nonpayable",
      "type": "constructor"
    },
    {
      "inputs": [],
      "name": "LazyNFT__InsufficientFundsSent",
      "type": "error"
    },
    {
      "inputs": [],
      "name": "LazyNFT__UnauthorizedCreator",
      "type": "error"
    },
    {
      "anonymous": false,
      "inputs": [
        {
          "indexed": true,
          "internalType": "address",
          "name": "owner",
          "type": "address"
        },
        {
          "indexed": true,
          "internalType": "address",
          "name": "approved",
          "type": "address"
        },
        {
          "indexed": true,
          "internalType": "uint256",
          "name": "tokenId",
          "type": "uint256"
        }
      ],
      "name": "Approval",
      "type": "event"
    },
    {
      "anonymous": false,
      "inputs": [
        {
          "indexed": true,
          "internalType": "address",
          "name": "owner",
          "type": "address"
        },
        {
          "indexed": true,
          "internalType": "address",
          "name": "operator",
          "type": "address"
        },
        {
          "indexed": false,
          "internalType": "bool",
          "name": "approved",
          "type": "bool"
        }
      ],
      "name": "ApprovalForAll",
      "type": "event"
    },
    {
      "anonymous": false,
      "inputs": [
        {
          "indexed": true,
          "internalType": "bytes32",
          "name": "role",
          "type": "bytes32"
        },
        {
          "indexed": true,
          "internalType": "bytes32",
          "name": "previousAdminRole",
          "type": "bytes32"
        },
        {
          "indexed": true,
          "internalType": "bytes32",
          "name": "newAdminRole",
          "type": "bytes32"
        }
      ],
      "name": "RoleAdminChanged",
      "type": "event"
    },
    {
      "anonymous": false,
      "inputs": [
        {
          "indexed": true,
          "internalType": "bytes32",
          "name": "role",
          "type": "bytes32"
        },
        {
          "indexed": true,
          "internalType": "address",
          "name": "account",
          "type": "address"
        },
        {
          "indexed": true,
          "internalType": "address",
          "name": "sender",
          "type": "address"
        }
      ],
      "name": "RoleGranted",
      "type": "event"
    },
    {
      "anonymous": false,
      "inputs": [
        {
          "indexed": true,
          "internalType": "bytes32",
          "name": "role",
          "type": "bytes32"
        },
        {
          "indexed": true,
          "internalType": "address",
          "name": "account",
          "type": "address"
        },
        {
          "indexed": true,
          "internalType": "address",
          "name": "sender",
          "type": "address"
        }
      ],
      "name": "RoleRevoked",
      "type": "event"
    },
    {
      "anonymous": false,
      "inputs": [
        {
          "indexed": true,
          "internalType": "address",
          "name": "from",
          "type": "address"
        },
        {
          "indexed": true,
          "internalType": "address",
          "name": "to",
          "type": "address"
        },
        {
          "indexed": true,
          "internalType": "uint256",
          "name": "tokenId",
          "type": "uint256"
        }
      ],
      "name": "Transfer",
      "type": "event"
    },
    {
      "inputs": [],
      "name": "DEFAULT_ADMIN_ROLE",
      "outputs": [
        {
          "internalType": "bytes32",
          "name": "",
          "type": "bytes32"
        }
      ],
      "stateMutability": "view",
      "type": "function"
    },
    {
      "inputs": [
        {
          "internalType": "address",
          "name": "to",
          "type": "address"
        },
        {
          "internalType": "uint256",
          "name": "tokenId",
          "type": "uint256"
        }
      ],
      "name": "approve",
      "outputs": [],
      "stateMutability": "nonpayable",
      "type": "function"
    },
    {
      "inputs": [],
      "name": "availableToWithdraw",
      "outputs": [
        {
          "internalType": "uint256",
          "name": "",
          "type": "uint256"
        }
      ],
      "stateMutability": "view",
      "type": "function"
    },
    {
      "inputs": [
        {
          "internalType": "address",
          "name": "owner",
          "type": "address"
        }
      ],
      "name": "balanceOf",
      "outputs": [
        {
          "internalType": "uint256",
          "name": "",
          "type": "uint256"
        }
      ],
      "stateMutability": "view",
      "type": "function"
    },
    {
      "inputs": [
        {
          "internalType": "uint256",
          "name": "tokenId",
          "type": "uint256"
        }
      ],
      "name": "getApproved",
      "outputs": [
        {
          "internalType": "address",
          "name": "",
          "type": "address"
        }
      ],
      "stateMutability": "view",
      "type": "function"
    },
    {
      "inputs": [
        {
          "internalType": "bytes32",
          "name": "role",
          "type": "bytes32"
        }
      ],
      "name": "getRoleAdmin",
      "outputs": [
        {
          "internalType": "bytes32",
          "name": "",
          "type": "bytes32"
        }
      ],
      "stateMutability": "view",
      "type": "function"
    },
    {
      "inputs": [
        {
          "internalType": "bytes32",
          "name": "role",
          "type": "bytes32"
        },
        {
          "internalType": "address",
          "name": "account",
          "type": "address"
        }
      ],
      "name": "grantRole",
      "outputs": [],
      "stateMutability": "nonpayable",
      "type": "function"
    },
    {
      "inputs": [
        {
          "internalType": "bytes32",
          "name": "role",
          "type": "bytes32"
        },
        {
          "internalType": "address",
          "name": "account",
          "type": "address"
        }
      ],
      "name": "hasRole",
      "outputs": [
        {
          "internalType": "bool",
          "name": "",
          "type": "bool"
        }
      ],
      "stateMutability": "view",
      "type": "function"
    },
    {
      "inputs": [
        {
          "internalType": "address",
          "name": "owner",
          "type": "address"
        },
        {
          "internalType": "address",
          "name": "operator",
          "type": "address"
        }
      ],
      "name": "isApprovedForAll",
      "outputs": [
        {
          "internalType": "bool",
          "name": "",
          "type": "bool"
        }
      ],
      "stateMutability": "view",
      "type": "function"
    },
    {
      "inputs": [],
      "name": "name",
      "outputs": [
        {
          "internalType": "string",
          "name": "",
          "type": "string"
        }
      ],
      "stateMutability": "view",
      "type": "function"
    },
    {
      "inputs": [
        {
          "internalType": "uint256",
          "name": "tokenId",
          "type": "uint256"
        }
      ],
      "name": "ownerOf",
      "outputs": [
        {
          "internalType": "address",
          "name": "",
          "type": "address"
        }
      ],
      "stateMutability": "view",
      "type": "function"
    },
    {
      "inputs": [
        {
          "internalType": "address",
          "name": "redeemer",
          "type": "address"
        },
        {
          "components": [
            {
              "internalType": "uint256",
              "name": "tokenId",
              "type": "uint256"
            },
            {
              "internalType": "uint256",
              "name": "minPrice",
              "type": "uint256"
            },
            {
              "internalType": "string",
              "name": "uri",
              "type": "string"
            },
            {
              "internalType": "bytes",
              "name": "signature",
              "type": "bytes"
            }
          ],
          "internalType": "struct LazyNFT.NFTVoucher",
          "name": "voucher",
          "type": "tuple"
        }
      ],
      "name": "redeem",
      "outputs": [
        {
          "internalType": "uint256",
          "name": "",
          "type": "uint256"
        }
      ],
      "stateMutability": "payable",
      "type": "function"
    },
    {
      "inputs": [
        {
          "internalType": "bytes32",
          "name": "role",
          "type": "bytes32"
        },
        {
          "internalType": "address",
          "name": "account",
          "type": "address"
        }
      ],
      "name": "renounceRole",
      "outputs": [],
      "stateMutability": "nonpayable",
      "type": "function"
    },
    {
      "inputs": [
        {
          "internalType": "bytes32",
          "name": "role",
          "type": "bytes32"
        },
        {
          "internalType": "address",
          "name": "account",
          "type": "address"
        }
      ],
      "name": "revokeRole",
      "outputs": [],
      "stateMutability": "nonpayable",
      "type": "function"
    },
    {
      "inputs": [
        {
          "internalType": "address",
          "name": "from",
          "type": "address"
        },
        {
          "internalType": "address",
          "name": "to",
          "type": "address"
        },
        {
          "internalType": "uint256",
          "name": "tokenId",
          "type": "uint256"
        }
      ],
      "name": "safeTransferFrom",
      "outputs": [],
      "stateMutability": "nonpayable",
      "type": "function"
    },
    {
      "inputs": [
        {
          "internalType": "address",
          "name": "from",
          "type": "address"
        },
        {
          "internalType": "address",
          "name": "to",
          "type": "address"
        },
        {
          "internalType": "uint256",
          "name": "tokenId",
          "type": "uint256"
        },
        {
          "internalType": "bytes",
          "name": "data",
          "type": "bytes"
        }
      ],
      "name": "safeTransferFrom",
      "outputs": [],
      "stateMutability": "nonpayable",
      "type": "function"
    },
    {
      "inputs": [
        {
          "internalType": "address",
          "name": "operator",
          "type": "address"
        },
        {
          "internalType": "bool",
          "name": "approved",
          "type": "bool"
        }
      ],
      "name": "setApprovalForAll",
      "outputs": [],
      "stateMutability": "nonpayable",
      "type": "function"
    },
    {
      "inputs": [
        {
          "internalType": "bytes4",
          "name": "interfaceId",
          "type": "bytes4"
        }
      ],
      "name": "supportsInterface",
      "outputs": [
        {
          "internalType": "bool",
          "name": "",
          "type": "bool"
        }
      ],
      "stateMutability": "view",
      "type": "function"
    },
    {
      "inputs": [],
      "name": "symbol",
      "outputs": [
        {
          "internalType": "string",
          "name": "",
          "type": "string"
        }
      ],
      "stateMutability": "view",
      "type": "function"
    },
    {
      "inputs": [
        {
          "internalType": "uint256",
          "name": "tokenId",
          "type": "uint256"
        }
      ],
      "name": "tokenURI",
      "outputs": [
        {
          "internalType": "string",
          "name": "",
          "type": "string"
        }
      ],
      "stateMutability": "view",
      "type": "function"
    },
    {
      "inputs": [
        {
          "internalType": "address",
          "name": "from",
          "type": "address"
        },
        {
          "internalType": "address",
          "name": "to",
          "type": "address"
        },
        {
          "internalType": "uint256",
          "name": "tokenId",
          "type": "uint256"
        }
      ],
      "name": "transferFrom",
      "outputs": [],
      "stateMutability": "nonpayable",
      "type": "function"
    },
    {
      "inputs": [],
      "name": "withdraw",
      "outputs": [],
      "stateMutability": "nonpayable",
      "type": "function"
    }
  ],
  "transactionHash": "0x9f33ba8591b1c1a9e38d78e2b7d48cb13525b8c439a4fd15fab1f60729cf5720",
  "args": [
    "Test Lazy NFT Studio",
    "TLFS",
    "0xf39Fd6e51aad88F6F4ce6aB8827279cffFb92266"
  ],
  "numDeployments": 1,
  "solcInputHash": "b9af985e228029a2c5a76831c9deac51",
  "bytecode": "0x6101406040523480156200001257600080fd5b5060405162004aed38038062004aed8339818101604052810190620000389190620004b0565b6040518060400160405280600f81526020017f4c617a794e46542d566f756368657200000000000000000000000000000000008152506040518060400160405280600181526020017f310000000000000000000000000000000000000000000000000000000000000081525084848160009080519060200190620000be9291906200036b565b508060019080519060200190620000d79291906200036b565b50505060008280519060200120905060008280519060200120905060007f8b73c3c69bb8fe3d512ecc4cf759cc79239f7b179b0ffacaa9a75d522b39400f90508260e081815250508161010081815250504660a0818152505062000143818484620001ca60201b60201c565b608081815250503073ffffffffffffffffffffffffffffffffffffffff1660c08173ffffffffffffffffffffffffffffffffffffffff1660601b815250508061012081815250505050505050620001c17f828634d95e775031b9ff576b159a8509d3053581a8c9c4d7d86899e0afcd882f826200020660201b60201c565b505050620007d4565b60008383834630604051602001620001e79594939291906200057d565b6040516020818303038152906040528051906020012090509392505050565b620002188282620002f860201b60201c565b620002f45760016007600084815260200190815260200160002060000160008373ffffffffffffffffffffffffffffffffffffffff1673ffffffffffffffffffffffffffffffffffffffff16815260200190815260200160002060006101000a81548160ff021916908315150217905550620002996200036360201b60201c565b73ffffffffffffffffffffffffffffffffffffffff168173ffffffffffffffffffffffffffffffffffffffff16837f2f8788117e7eff1d82e926ec794901d17c78024a50270940304540a733656f0d60405160405180910390a45b5050565b60006007600084815260200190815260200160002060000160008373ffffffffffffffffffffffffffffffffffffffff1673ffffffffffffffffffffffffffffffffffffffff16815260200190815260200160002060009054906101000a900460ff16905092915050565b600033905090565b8280546200037990620006cb565b90600052602060002090601f0160209004810192826200039d5760008555620003e9565b82601f10620003b857805160ff1916838001178555620003e9565b82800160010185558215620003e9579182015b82811115620003e8578251825591602001919060010190620003cb565b5b509050620003f89190620003fc565b5090565b5b8082111562000417576000816000905550600101620003fd565b5090565b6000620004326200042c8462000603565b620005da565b9050828152602081018484840111156200045157620004506200079a565b5b6200045e84828562000695565b509392505050565b6000815190506200047781620007ba565b92915050565b600082601f83011262000495576200049462000795565b5b8151620004a78482602086016200041b565b91505092915050565b600080600060608486031215620004cc57620004cb620007a4565b5b600084015167ffffffffffffffff811115620004ed57620004ec6200079f565b5b620004fb868287016200047d565b935050602084015167ffffffffffffffff8111156200051f576200051e6200079f565b5b6200052d868287016200047d565b9250506040620005408682870162000466565b9150509250925092565b620005558162000639565b82525050565b620005668162000661565b82525050565b62000577816200068b565b82525050565b600060a0820190506200059460008301886200055b565b620005a360208301876200055b565b620005b260408301866200055b565b620005c160608301856200056c565b620005d060808301846200054a565b9695505050505050565b6000620005e6620005f9565b9050620005f4828262000701565b919050565b6000604051905090565b600067ffffffffffffffff82111562000621576200062062000766565b5b6200062c82620007a9565b9050602081019050919050565b600062000646826200066b565b9050919050565b60006200065a826200066b565b9050919050565b6000819050919050565b600073ffffffffffffffffffffffffffffffffffffffff82169050919050565b6000819050919050565b60005b83811015620006b557808201518184015260208101905062000698565b83811115620006c5576000848401525b50505050565b60006002820490506001821680620006e457607f821691505b60208210811415620006fb57620006fa62000737565b5b50919050565b6200070c82620007a9565b810181811067ffffffffffffffff821117156200072e576200072d62000766565b5b80604052505050565b7f4e487b7100000000000000000000000000000000000000000000000000000000600052602260045260246000fd5b7f4e487b7100000000000000000000000000000000000000000000000000000000600052604160045260246000fd5b600080fd5b600080fd5b600080fd5b600080fd5b6000601f19601f8301169050919050565b620007c5816200064d565b8114620007d157600080fd5b50565b60805160a05160c05160601c60e05161010051610120516142c662000827600039600061297e015260006129c00152600061299f015260006128d40152600061292a0152600061295301526142c66000f3fe6080604052600436106101355760003560e01c80636352211e116100ab578063a22cb4651161006f578063a22cb4651461043d578063b88d4fde14610466578063c87b56dd1461048f578063d547741f146104cc578063e322ad2b146104f5578063e985e9c51461052057610135565b80636352211e1461033057806370a082311461036d57806391d14854146103aa57806395d89b41146103e7578063a217fddf1461041257610135565b806323b872dd116100fd57806323b872dd14610238578063248a9ca3146102615780632f2ff15d1461029e57806336568abe146102c75780633ccfd60b146102f057806342842e0e1461030757610135565b806301ffc9a71461013a57806306fdde0314610177578063081812fc146101a257806308708a78146101df578063095ea7b31461020f575b600080fd5b34801561014657600080fd5b50610161600480360381019061015c9190612f76565b61055d565b60405161016e91906134f8565b60405180910390f35b34801561018357600080fd5b5061018c61057f565b604051610199919061360b565b60405180910390f35b3480156101ae57600080fd5b506101c960048036038101906101c49190612fd0565b610611565b6040516101d69190613491565b60405180910390f35b6101f960048036038101906101f49190612e6d565b610657565b604051610206919061384d565b60405180910390f35b34801561021b57600080fd5b5061023660048036038101906102319190612ec9565b6107e4565b005b34801561024457600080fd5b5061025f600480360381019061025a9190612d57565b6108fc565b005b34801561026d57600080fd5b5061028860048036038101906102839190612f09565b61095c565b6040516102959190613513565b60405180910390f35b3480156102aa57600080fd5b506102c560048036038101906102c09190612f36565b61097c565b005b3480156102d357600080fd5b506102ee60048036038101906102e99190612f36565b61099d565b005b3480156102fc57600080fd5b50610305610a20565b005b34801561031357600080fd5b5061032e60048036038101906103299190612d57565b610b59565b005b34801561033c57600080fd5b5061035760048036038101906103529190612fd0565b610b79565b6040516103649190613491565b60405180910390f35b34801561037957600080fd5b50610394600480360381019061038f9190612cea565b610c00565b6040516103a1919061384d565b60405180910390f35b3480156103b657600080fd5b506103d160048036038101906103cc9190612f36565b610cb8565b6040516103de91906134f8565b60405180910390f35b3480156103f357600080fd5b506103fc610d23565b604051610409919061360b565b60405180910390f35b34801561041e57600080fd5b50610427610db5565b6040516104349190613513565b60405180910390f35b34801561044957600080fd5b50610464600480360381019061045f9190612e2d565b610dbc565b005b34801561047257600080fd5b5061048d60048036038101906104889190612daa565b610dd2565b005b34801561049b57600080fd5b506104b660048036038101906104b19190612fd0565b610e34565b6040516104c3919061360b565b60405180910390f35b3480156104d857600080fd5b506104f360048036038101906104ee9190612f36565b610f47565b005b34801561050157600080fd5b5061050a610f68565b604051610517919061384d565b60405180910390f35b34801561052c57600080fd5b5061054760048036038101906105429190612d17565b610faf565b60405161055491906134f8565b60405180910390f35b600061056882611043565b80610578575061057782611125565b5b9050919050565b60606000805461058e90613bad565b80601f01602080910402602001604051908101604052809291908181526020018280546105ba90613bad565b80156106075780601f106105dc57610100808354040283529160200191610607565b820191906000526020600020905b8154815290600101906020018083116105ea57829003601f168201915b5050505050905090565b600061061c8261119f565b6004600083815260200190815260200160002060009054906101000a900473ffffffffffffffffffffffffffffffffffffffff169050919050565b600080610663836111ea565b905061068f7f828634d95e775031b9ff576b159a8509d3053581a8c9c4d7d86899e0afcd882f82610cb8565b6106c5576040517ff6b81f2d00000000000000000000000000000000000000000000000000000000815260040160405180910390fd5b8260200135341015610703576040517f7d7a4b2b00000000000000000000000000000000000000000000000000000000815260040160405180910390fd5b61071181846000013561125c565b610771836000013584806040019061072991906138cb565b8080601f016020809104026020016040519081016040528093929190818152602001838380828437600081840152601f19601f8201169050808301925050505050505061147a565b610780818585600001356114ee565b34600860008373ffffffffffffffffffffffffffffffffffffffff1673ffffffffffffffffffffffffffffffffffffffff16815260200190815260200160002060008282546107cf91906139d2565b92505081905550826000013591505092915050565b60006107ef82610b79565b90508073ffffffffffffffffffffffffffffffffffffffff168373ffffffffffffffffffffffffffffffffffffffff161415610860576040517f08c379a0000000000000000000000000000000000000000000000000000000008152600401610857906137ed565b60405180910390fd5b8073ffffffffffffffffffffffffffffffffffffffff1661087f6117e8565b73ffffffffffffffffffffffffffffffffffffffff1614806108ae57506108ad816108a86117e8565b610faf565b5b6108ed576040517f08c379a00000000000000000000000000000000000000000000000000000000081526004016108e49061380d565b60405180910390fd5b6108f783836117f0565b505050565b61090d6109076117e8565b826118a9565b61094c576040517f08c379a00000000000000000000000000000000000000000000000000000000081526004016109439061366d565b60405180910390fd5b6109578383836114ee565b505050565b600060076000838152602001908152602001600020600101549050919050565b6109858261095c565b61098e8161193e565b6109988383611952565b505050565b6109a56117e8565b73ffffffffffffffffffffffffffffffffffffffff168173ffffffffffffffffffffffffffffffffffffffff1614610a12576040517f08c379a0000000000000000000000000000000000000000000000000000000008152600401610a099061382d565b60405180910390fd5b610a1c8282611a33565b5050565b610a4a7f828634d95e775031b9ff576b159a8509d3053581a8c9c4d7d86899e0afcd882f33610cb8565b610a80576040517ff6b81f2d00000000000000000000000000000000000000000000000000000000815260040160405180910390fd5b60003390506000600860008373ffffffffffffffffffffffffffffffffffffffff1673ffffffffffffffffffffffffffffffffffffffff1681526020019081526020016000205490506000600860008473ffffffffffffffffffffffffffffffffffffffff1673ffffffffffffffffffffffffffffffffffffffff168152602001908152602001600020819055508173ffffffffffffffffffffffffffffffffffffffff166108fc829081150290604051600060405180830381858888f19350505050158015610b54573d6000803e3d6000fd5b505050565b610b7483838360405180602001604052806000815250610dd2565b505050565b600080610b8583611b15565b9050600073ffffffffffffffffffffffffffffffffffffffff168173ffffffffffffffffffffffffffffffffffffffff161415610bf7576040517f08c379a0000000000000000000000000000000000000000000000000000000008152600401610bee906137cd565b60405180910390fd5b80915050919050565b60008073ffffffffffffffffffffffffffffffffffffffff168273ffffffffffffffffffffffffffffffffffffffff161415610c71576040517f08c379a0000000000000000000000000000000000000000000000000000000008152600401610c689061376d565b60405180910390fd5b600360008373ffffffffffffffffffffffffffffffffffffffff1673ffffffffffffffffffffffffffffffffffffffff168152602001908152602001600020549050919050565b60006007600084815260200190815260200160002060000160008373ffffffffffffffffffffffffffffffffffffffff1673ffffffffffffffffffffffffffffffffffffffff16815260200190815260200160002060009054906101000a900460ff16905092915050565b606060018054610d3290613bad565b80601f0160208091040260200160405190810160405280929190818152602001828054610d5e90613bad565b8015610dab5780601f10610d8057610100808354040283529160200191610dab565b820191906000526020600020905b815481529060010190602001808311610d8e57829003601f168201915b5050505050905090565b6000801b81565b610dce610dc76117e8565b8383611b52565b5050565b610de3610ddd6117e8565b836118a9565b610e22576040517f08c379a0000000000000000000000000000000000000000000000000000000008152600401610e199061366d565b60405180910390fd5b610e2e84848484611cbf565b50505050565b6060610e3f8261119f565b6000600660008481526020019081526020016000208054610e5f90613bad565b80601f0160208091040260200160405190810160405280929190818152602001828054610e8b90613bad565b8015610ed85780601f10610ead57610100808354040283529160200191610ed8565b820191906000526020600020905b815481529060010190602001808311610ebb57829003601f168201915b505050505090506000610ee9611d1b565b9050600081511415610eff578192505050610f42565b600082511115610f34578082604051602001610f1c9291906133fc565b60405160208183030381529060405292505050610f42565b610f3d84611d32565b925050505b919050565b610f508261095c565b610f598161193e565b610f638383611a33565b505050565b6000600860003373ffffffffffffffffffffffffffffffffffffffff1673ffffffffffffffffffffffffffffffffffffffff16815260200190815260200160002054905090565b6000600560008473ffffffffffffffffffffffffffffffffffffffff1673ffffffffffffffffffffffffffffffffffffffff16815260200190815260200160002060008373ffffffffffffffffffffffffffffffffffffffff1673ffffffffffffffffffffffffffffffffffffffff16815260200190815260200160002060009054906101000a900460ff16905092915050565b60007f80ac58cd000000000000000000000000000000000000000000000000000000007bffffffffffffffffffffffffffffffffffffffffffffffffffffffff1916827bffffffffffffffffffffffffffffffffffffffffffffffffffffffff1916148061110e57507f5b5e139f000000000000000000000000000000000000000000000000000000007bffffffffffffffffffffffffffffffffffffffffffffffffffffffff1916827bffffffffffffffffffffffffffffffffffffffffffffffffffffffff1916145b8061111e575061111d82611d9a565b5b9050919050565b60007f7965db0b000000000000000000000000000000000000000000000000000000007bffffffffffffffffffffffffffffffffffffffffffffffffffffffff1916827bffffffffffffffffffffffffffffffffffffffffffffffffffffffff19161480611198575061119782611043565b5b9050919050565b6111a881611e04565b6111e7576040517f08c379a00000000000000000000000000000000000000000000000000000000081526004016111de906137cd565b60405180910390fd5b50565b6000806111f683611e45565b90506112548184806060019061120c9190613868565b8080601f016020809104026020016040519081016040528093929190818152602001838380828437600081840152601f19601f82011690508083019250505050505050611ed0565b915050919050565b600073ffffffffffffffffffffffffffffffffffffffff168273ffffffffffffffffffffffffffffffffffffffff1614156112cc576040517f08c379a00000000000000000000000000000000000000000000000000000000081526004016112c3906137ad565b60405180910390fd5b6112d581611e04565b15611315576040517f08c379a000000000000000000000000000000000000000000000000000000000815260040161130c906136ed565b60405180910390fd5b611323600083836001611ef7565b61132c81611e04565b1561136c576040517f08c379a0000000000000000000000000000000000000000000000000000000008152600401611363906136ed565b60405180910390fd5b6001600360008473ffffffffffffffffffffffffffffffffffffffff1673ffffffffffffffffffffffffffffffffffffffff16815260200190815260200160002060008282540192505081905550816002600083815260200190815260200160002060006101000a81548173ffffffffffffffffffffffffffffffffffffffff021916908373ffffffffffffffffffffffffffffffffffffffff160217905550808273ffffffffffffffffffffffffffffffffffffffff16600073ffffffffffffffffffffffffffffffffffffffff167fddf252ad1be2c89b69c2b068fc378daa952ba7f163c4a11628f55a4df523b3ef60405160405180910390a461147660008383600161201d565b5050565b61148382611e04565b6114c2576040517f08c379a00000000000000000000000000000000000000000000000000000000081526004016114b99061378d565b60405180910390fd5b806006600084815260200190815260200160002090805190602001906114e9929190612b3a565b505050565b8273ffffffffffffffffffffffffffffffffffffffff1661150e82610b79565b73ffffffffffffffffffffffffffffffffffffffff1614611564576040517f08c379a000000000000000000000000000000000000000000000000000000000815260040161155b906136cd565b60405180910390fd5b600073ffffffffffffffffffffffffffffffffffffffff168273ffffffffffffffffffffffffffffffffffffffff1614156115d4576040517f08c379a00000000000000000000000000000000000000000000000000000000081526004016115cb9061370d565b60405180910390fd5b6115e18383836001611ef7565b8273ffffffffffffffffffffffffffffffffffffffff1661160182610b79565b73ffffffffffffffffffffffffffffffffffffffff1614611657576040517f08c379a000000000000000000000000000000000000000000000000000000000815260040161164e906136cd565b60405180910390fd5b6004600082815260200190815260200160002060006101000a81549073ffffffffffffffffffffffffffffffffffffffff02191690556001600360008573ffffffffffffffffffffffffffffffffffffffff1673ffffffffffffffffffffffffffffffffffffffff168152602001908152602001600020600082825403925050819055506001600360008473ffffffffffffffffffffffffffffffffffffffff1673ffffffffffffffffffffffffffffffffffffffff16815260200190815260200160002060008282540192505081905550816002600083815260200190815260200160002060006101000a81548173ffffffffffffffffffffffffffffffffffffffff021916908373ffffffffffffffffffffffffffffffffffffffff160217905550808273ffffffffffffffffffffffffffffffffffffffff168473ffffffffffffffffffffffffffffffffffffffff167fddf252ad1be2c89b69c2b068fc378daa952ba7f163c4a11628f55a4df523b3ef60405160405180910390a46117e3838383600161201d565b505050565b600033905090565b816004600083815260200190815260200160002060006101000a81548173ffffffffffffffffffffffffffffffffffffffff021916908373ffffffffffffffffffffffffffffffffffffffff160217905550808273ffffffffffffffffffffffffffffffffffffffff1661186383610b79565b73ffffffffffffffffffffffffffffffffffffffff167f8c5be1e5ebec7d5bd14f71427d1e84f3dd0314c0f7b2291e5b200ac8c7c3b92560405160405180910390a45050565b6000806118b583610b79565b90508073ffffffffffffffffffffffffffffffffffffffff168473ffffffffffffffffffffffffffffffffffffffff1614806118f757506118f68185610faf565b5b8061193557508373ffffffffffffffffffffffffffffffffffffffff1661191d84610611565b73ffffffffffffffffffffffffffffffffffffffff16145b91505092915050565b61194f8161194a6117e8565b612023565b50565b61195c8282610cb8565b611a2f5760016007600084815260200190815260200160002060000160008373ffffffffffffffffffffffffffffffffffffffff1673ffffffffffffffffffffffffffffffffffffffff16815260200190815260200160002060006101000a81548160ff0219169083151502179055506119d46117e8565b73ffffffffffffffffffffffffffffffffffffffff168173ffffffffffffffffffffffffffffffffffffffff16837f2f8788117e7eff1d82e926ec794901d17c78024a50270940304540a733656f0d60405160405180910390a45b5050565b611a3d8282610cb8565b15611b115760006007600084815260200190815260200160002060000160008373ffffffffffffffffffffffffffffffffffffffff1673ffffffffffffffffffffffffffffffffffffffff16815260200190815260200160002060006101000a81548160ff021916908315150217905550611ab66117e8565b73ffffffffffffffffffffffffffffffffffffffff168173ffffffffffffffffffffffffffffffffffffffff16837ff6391f5c32d9c69d2a47ea670b442974b53935d1edc7fd64eb21e047a839171b60405160405180910390a45b5050565b60006002600083815260200190815260200160002060009054906101000a900473ffffffffffffffffffffffffffffffffffffffff169050919050565b8173ffffffffffffffffffffffffffffffffffffffff168373ffffffffffffffffffffffffffffffffffffffff161415611bc1576040517f08c379a0000000000000000000000000000000000000000000000000000000008152600401611bb89061372d565b60405180910390fd5b80600560008573ffffffffffffffffffffffffffffffffffffffff1673ffffffffffffffffffffffffffffffffffffffff16815260200190815260200160002060008473ffffffffffffffffffffffffffffffffffffffff1673ffffffffffffffffffffffffffffffffffffffff16815260200190815260200160002060006101000a81548160ff0219169083151502179055508173ffffffffffffffffffffffffffffffffffffffff168373ffffffffffffffffffffffffffffffffffffffff167f17307eab39ab6107e8899845ad3d59bd9653f200f220920489ca2b5937696c3183604051611cb291906134f8565b60405180910390a3505050565b611cca8484846114ee565b611cd6848484846120a8565b611d15576040517f08c379a0000000000000000000000000000000000000000000000000000000008152600401611d0c906136ad565b60405180910390fd5b50505050565b606060405180602001604052806000815250905090565b6060611d3d8261119f565b6000611d47611d1b565b90506000815111611d675760405180602001604052806000815250611d92565b80611d718461223f565b604051602001611d829291906133fc565b6040516020818303038152906040525b915050919050565b60007f01ffc9a7000000000000000000000000000000000000000000000000000000007bffffffffffffffffffffffffffffffffffffffffffffffffffffffff1916827bffffffffffffffffffffffffffffffffffffffffffffffffffffffff1916149050919050565b60008073ffffffffffffffffffffffffffffffffffffffff16611e2683611b15565b73ffffffffffffffffffffffffffffffffffffffff1614159050919050565b6000611ec97f6316f9ddd4d59a364f3b95c26bab9d392c3380ace0fff15e91ed76f0d8bcd15a83600001358460200135858060400190611e8591906138cb565b604051611e939291906133e3565b6040518091039020604051602001611eae9493929190613581565b60405160208183030381529060405280519060200120612317565b9050919050565b6000806000611edf8585612331565b91509150611eec81612383565b819250505092915050565b600181111561201757600073ffffffffffffffffffffffffffffffffffffffff168473ffffffffffffffffffffffffffffffffffffffff1614611f8b5780600360008673ffffffffffffffffffffffffffffffffffffffff1673ffffffffffffffffffffffffffffffffffffffff1681526020019081526020016000206000828254611f839190613a82565b925050819055505b600073ffffffffffffffffffffffffffffffffffffffff168373ffffffffffffffffffffffffffffffffffffffff16146120165780600360008573ffffffffffffffffffffffffffffffffffffffff1673ffffffffffffffffffffffffffffffffffffffff168152602001908152602001600020600082825461200e91906139d2565b925050819055505b5b50505050565b50505050565b61202d8282610cb8565b6120a45761203a816124f1565b6120488360001c602061251e565b604051602001612059929190613457565b6040516020818303038152906040526040517f08c379a000000000000000000000000000000000000000000000000000000000815260040161209b919061360b565b60405180910390fd5b5050565b60006120c98473ffffffffffffffffffffffffffffffffffffffff1661275a565b15612232578373ffffffffffffffffffffffffffffffffffffffff1663150b7a026120f26117e8565b8786866040518563ffffffff1660e01b815260040161211494939291906134ac565b602060405180830381600087803b15801561212e57600080fd5b505af192505050801561215f57506040513d601f19601f8201168201806040525081019061215c9190612fa3565b60015b6121e2573d806000811461218f576040519150601f19603f3d011682016040523d82523d6000602084013e612194565b606091505b506000815114156121da576040517f08c379a00000000000000000000000000000000000000000000000000000000081526004016121d1906136ad565b60405180910390fd5b805181602001fd5b63150b7a0260e01b7bffffffffffffffffffffffffffffffffffffffffffffffffffffffff1916817bffffffffffffffffffffffffffffffffffffffffffffffffffffffff191614915050612237565b600190505b949350505050565b60606000600161224e8461277d565b01905060008167ffffffffffffffff81111561226d5761226c613d05565b5b6040519080825280601f01601f19166020018201604052801561229f5781602001600182028036833780820191505090505b509050600082602001820190505b60011561230c578080600190039150507f3031323334353637383961626364656600000000000000000000000000000000600a86061a8153600a85816122f6576122f5613c49565b5b04945060008514156123075761230c565b6122ad565b819350505050919050565b600061232a6123246128d0565b836129ea565b9050919050565b6000806041835114156123735760008060006020860151925060408601519150606086015160001a905061236787828585612a1d565b9450945050505061237c565b60006002915091505b9250929050565b6000600481111561239757612396613c78565b5b8160048111156123aa576123a9613c78565b5b14156123b5576124ee565b600160048111156123c9576123c8613c78565b5b8160048111156123dc576123db613c78565b5b141561241d576040517f08c379a00000000000000000000000000000000000000000000000000000000081526004016124149061362d565b60405180910390fd5b6002600481111561243157612430613c78565b5b81600481111561244457612443613c78565b5b1415612485576040517f08c379a000000000000000000000000000000000000000000000000000000000815260040161247c9061368d565b60405180910390fd5b6003600481111561249957612498613c78565b5b8160048111156124ac576124ab613c78565b5b14156124ed576040517f08c379a00000000000000000000000000000000000000000000000000000000081526004016124e49061374d565b60405180910390fd5b5b50565b60606125178273ffffffffffffffffffffffffffffffffffffffff16601460ff1661251e565b9050919050565b6060600060028360026125319190613a28565b61253b91906139d2565b67ffffffffffffffff81111561255457612553613d05565b5b6040519080825280601f01601f1916602001820160405280156125865781602001600182028036833780820191505090505b5090507f3000000000000000000000000000000000000000000000000000000000000000816000815181106125be576125bd613cd6565b5b60200101907effffffffffffffffffffffffffffffffffffffffffffffffffffffffffffff1916908160001a9053507f78000000000000000000000000000000000000000000000000000000000000008160018151811061262257612621613cd6565b5b60200101907effffffffffffffffffffffffffffffffffffffffffffffffffffffffffffff1916908160001a905350600060018460026126629190613a28565b61266c91906139d2565b90505b600181111561270c577f3031323334353637383961626364656600000000000000000000000000000000600f8616601081106126ae576126ad613cd6565b5b1a60f81b8282815181106126c5576126c4613cd6565b5b60200101907effffffffffffffffffffffffffffffffffffffffffffffffffffffffffffff1916908160001a905350600485901c94508061270590613b83565b905061266f565b5060008414612750576040517f08c379a00000000000000000000000000000000000000000000000000000000081526004016127479061364d565b60405180910390fd5b8091505092915050565b6000808273ffffffffffffffffffffffffffffffffffffffff163b119050919050565b600080600090507a184f03e93ff9f4daa797ed6e38ed64bf6a1f01000000000000000083106127db577a184f03e93ff9f4daa797ed6e38ed64bf6a1f01000000000000000083816127d1576127d0613c49565b5b0492506040810190505b6d04ee2d6d415b85acef81000000008310612818576d04ee2d6d415b85acef8100000000838161280e5761280d613c49565b5b0492506020810190505b662386f26fc10000831061284757662386f26fc10000838161283d5761283c613c49565b5b0492506010810190505b6305f5e1008310612870576305f5e100838161286657612865613c49565b5b0492506008810190505b612710831061289557612710838161288b5761288a613c49565b5b0492506004810190505b606483106128b857606483816128ae576128ad613c49565b5b0492506002810190505b600a83106128c7576001810190505b80915050919050565b60007f000000000000000000000000000000000000000000000000000000000000000073ffffffffffffffffffffffffffffffffffffffff163073ffffffffffffffffffffffffffffffffffffffff1614801561294c57507f000000000000000000000000000000000000000000000000000000000000000046145b15612979577f000000000000000000000000000000000000000000000000000000000000000090506129e7565b6129e47f00000000000000000000000000000000000000000000000000000000000000007f00000000000000000000000000000000000000000000000000000000000000007f0000000000000000000000000000000000000000000000000000000000000000612b00565b90505b90565b600082826040516020016129ff929190613420565b60405160208183030381529060405280519060200120905092915050565b6000807f7fffffffffffffffffffffffffffffff5d576e7357a4501ddfe92f46681b20a08360001c1115612a58576000600391509150612af7565b600060018787878760405160008152602001604052604051612a7d94939291906135c6565b6020604051602081039080840390855afa158015612a9f573d6000803e3d6000fd5b505050602060405103519050600073ffffffffffffffffffffffffffffffffffffffff168173ffffffffffffffffffffffffffffffffffffffff161415612aee57600060019250925050612af7565b80600092509250505b94509492505050565b60008383834630604051602001612b1b95949392919061352e565b6040516020818303038152906040528051906020012090509392505050565b828054612b4690613bad565b90600052602060002090601f016020900481019282612b685760008555612baf565b82601f10612b8157805160ff1916838001178555612baf565b82800160010185558215612baf579182015b82811115612bae578251825591602001919060010190612b93565b5b509050612bbc9190612bc0565b5090565b5b80821115612bd9576000816000905550600101612bc1565b5090565b6000612bf0612beb84613953565b61392e565b905082815260208101848484011115612c0c57612c0b613d4d565b5b612c17848285613b41565b509392505050565b600081359050612c2e8161421d565b92915050565b600081359050612c4381614234565b92915050565b600081359050612c588161424b565b92915050565b600081359050612c6d81614262565b92915050565b600081519050612c8281614262565b92915050565b600082601f830112612c9d57612c9c613d34565b5b8135612cad848260208601612bdd565b91505092915050565b600060808284031215612ccc57612ccb613d3e565b5b81905092915050565b600081359050612ce481614279565b92915050565b600060208284031215612d0057612cff613d57565b5b6000612d0e84828501612c1f565b91505092915050565b60008060408385031215612d2e57612d2d613d57565b5b6000612d3c85828601612c1f565b9250506020612d4d85828601612c1f565b9150509250929050565b600080600060608486031215612d7057612d6f613d57565b5b6000612d7e86828701612c1f565b9350506020612d8f86828701612c1f565b9250506040612da086828701612cd5565b9150509250925092565b60008060008060808587031215612dc457612dc3613d57565b5b6000612dd287828801612c1f565b9450506020612de387828801612c1f565b9350506040612df487828801612cd5565b925050606085013567ffffffffffffffff811115612e1557612e14613d52565b5b612e2187828801612c88565b91505092959194509250565b60008060408385031215612e4457612e43613d57565b5b6000612e5285828601612c1f565b9250506020612e6385828601612c34565b9150509250929050565b60008060408385031215612e8457612e83613d57565b5b6000612e9285828601612c1f565b925050602083013567ffffffffffffffff811115612eb357612eb2613d52565b5b612ebf85828601612cb6565b9150509250929050565b60008060408385031215612ee057612edf613d57565b5b6000612eee85828601612c1f565b9250506020612eff85828601612cd5565b9150509250929050565b600060208284031215612f1f57612f1e613d57565b5b6000612f2d84828501612c49565b91505092915050565b60008060408385031215612f4d57612f4c613d57565b5b6000612f5b85828601612c49565b9250506020612f6c85828601612c1f565b9150509250929050565b600060208284031215612f8c57612f8b613d57565b5b6000612f9a84828501612c5e565b91505092915050565b600060208284031215612fb957612fb8613d57565b5b6000612fc784828501612c73565b91505092915050565b600060208284031215612fe657612fe5613d57565b5b6000612ff484828501612cd5565b91505092915050565b61300681613ab6565b82525050565b61301581613ac8565b82525050565b61302481613ad4565b82525050565b61303b61303682613ad4565b613c10565b82525050565b600061304d83856139ab565b935061305a838584613b41565b82840190509392505050565b600061307182613984565b61307b818561399a565b935061308b818560208601613b50565b61309481613d5c565b840191505092915050565b60006130aa8261398f565b6130b481856139b6565b93506130c4818560208601613b50565b6130cd81613d5c565b840191505092915050565b60006130e38261398f565b6130ed81856139c7565b93506130fd818560208601613b50565b80840191505092915050565b60006131166018836139b6565b915061312182613d6d565b602082019050919050565b60006131396020836139b6565b915061314482613d96565b602082019050919050565b600061315c602d836139b6565b915061316782613dbf565b604082019050919050565b600061317f601f836139b6565b915061318a82613e0e565b602082019050919050565b60006131a26032836139b6565b91506131ad82613e37565b604082019050919050565b60006131c56025836139b6565b91506131d082613e86565b604082019050919050565b60006131e8601c836139b6565b91506131f382613ed5565b602082019050919050565b600061320b6002836139c7565b915061321682613efe565b600282019050919050565b600061322e6024836139b6565b915061323982613f27565b604082019050919050565b60006132516019836139b6565b915061325c82613f76565b602082019050919050565b60006132746022836139b6565b915061327f82613f9f565b604082019050919050565b60006132976029836139b6565b91506132a282613fee565b604082019050919050565b60006132ba602e836139b6565b91506132c58261403d565b604082019050919050565b60006132dd6020836139b6565b91506132e88261408c565b602082019050919050565b60006133006018836139b6565b915061330b826140b5565b602082019050919050565b60006133236021836139b6565b915061332e826140de565b604082019050919050565b6000613346603d836139b6565b91506133518261412d565b604082019050919050565b60006133696017836139c7565b91506133748261417c565b601782019050919050565b600061338c6011836139c7565b9150613397826141a5565b601182019050919050565b60006133af602f836139b6565b91506133ba826141ce565b604082019050919050565b6133ce81613b2a565b82525050565b6133dd81613b34565b82525050565b60006133f0828486613041565b91508190509392505050565b600061340882856130d8565b915061341482846130d8565b91508190509392505050565b600061342b826131fe565b9150613437828561302a565b602082019150613447828461302a565b6020820191508190509392505050565b60006134628261335c565b915061346e82856130d8565b91506134798261337f565b915061348582846130d8565b91508190509392505050565b60006020820190506134a66000830184612ffd565b92915050565b60006080820190506134c16000830187612ffd565b6134ce6020830186612ffd565b6134db60408301856133c5565b81810360608301526134ed8184613066565b905095945050505050565b600060208201905061350d600083018461300c565b92915050565b6000602082019050613528600083018461301b565b92915050565b600060a082019050613543600083018861301b565b613550602083018761301b565b61355d604083018661301b565b61356a60608301856133c5565b6135776080830184612ffd565b9695505050505050565b6000608082019050613596600083018761301b565b6135a360208301866133c5565b6135b060408301856133c5565b6135bd606083018461301b565b95945050505050565b60006080820190506135db600083018761301b565b6135e860208301866133d4565b6135f5604083018561301b565b613602606083018461301b565b95945050505050565b60006020820190508181036000830152613625818461309f565b905092915050565b6000602082019050818103600083015261364681613109565b9050919050565b600060208201905081810360008301526136668161312c565b9050919050565b600060208201905081810360008301526136868161314f565b9050919050565b600060208201905081810360008301526136a681613172565b9050919050565b600060208201905081810360008301526136c681613195565b9050919050565b600060208201905081810360008301526136e6816131b8565b9050919050565b60006020820190508181036000830152613706816131db565b9050919050565b6000602082019050818103600083015261372681613221565b9050919050565b6000602082019050818103600083015261374681613244565b9050919050565b6000602082019050818103600083015261376681613267565b9050919050565b600060208201905081810360008301526137868161328a565b9050919050565b600060208201905081810360008301526137a6816132ad565b9050919050565b600060208201905081810360008301526137c6816132d0565b9050919050565b600060208201905081810360008301526137e6816132f3565b9050919050565b6000602082019050818103600083015261380681613316565b9050919050565b6000602082019050818103600083015261382681613339565b9050919050565b60006020820190508181036000830152613846816133a2565b9050919050565b600060208201905061386260008301846133c5565b92915050565b6000808335600160200384360303811261388557613884613d43565b5b80840192508235915067ffffffffffffffff8211156138a7576138a6613d39565b5b6020830192506001820236038313156138c3576138c2613d48565b5b509250929050565b600080833560016020038436030381126138e8576138e7613d43565b5b80840192508235915067ffffffffffffffff82111561390a57613909613d39565b5b60208301925060018202360383131561392657613925613d48565b5b509250929050565b6000613938613949565b90506139448282613bdf565b919050565b6000604051905090565b600067ffffffffffffffff82111561396e5761396d613d05565b5b61397782613d5c565b9050602081019050919050565b600081519050919050565b600081519050919050565b600082825260208201905092915050565b600081905092915050565b600082825260208201905092915050565b600081905092915050565b60006139dd82613b2a565b91506139e883613b2a565b9250827fffffffffffffffffffffffffffffffffffffffffffffffffffffffffffffffff03821115613a1d57613a1c613c1a565b5b828201905092915050565b6000613a3382613b2a565b9150613a3e83613b2a565b9250817fffffffffffffffffffffffffffffffffffffffffffffffffffffffffffffffff0483118215151615613a7757613a76613c1a565b5b828202905092915050565b6000613a8d82613b2a565b9150613a9883613b2a565b925082821015613aab57613aaa613c1a565b5b828203905092915050565b6000613ac182613b0a565b9050919050565b60008115159050919050565b6000819050919050565b60007fffffffff0000000000000000000000000000000000000000000000000000000082169050919050565b600073ffffffffffffffffffffffffffffffffffffffff82169050919050565b6000819050919050565b600060ff82169050919050565b82818337600083830152505050565b60005b83811015613b6e578082015181840152602081019050613b53565b83811115613b7d576000848401525b50505050565b6000613b8e82613b2a565b91506000821415613ba257613ba1613c1a565b5b600182039050919050565b60006002820490506001821680613bc557607f821691505b60208210811415613bd957613bd8613ca7565b5b50919050565b613be882613d5c565b810181811067ffffffffffffffff82111715613c0757613c06613d05565b5b80604052505050565b6000819050919050565b7f4e487b7100000000000000000000000000000000000000000000000000000000600052601160045260246000fd5b7f4e487b7100000000000000000000000000000000000000000000000000000000600052601260045260246000fd5b7f4e487b7100000000000000000000000000000000000000000000000000000000600052602160045260246000fd5b7f4e487b7100000000000000000000000000000000000000000000000000000000600052602260045260246000fd5b7f4e487b7100000000000000000000000000000000000000000000000000000000600052603260045260246000fd5b7f4e487b7100000000000000000000000000000000000000000000000000000000600052604160045260246000fd5b600080fd5b600080fd5b600080fd5b600080fd5b600080fd5b600080fd5b600080fd5b600080fd5b6000601f19601f8301169050919050565b7f45434453413a20696e76616c6964207369676e61747572650000000000000000600082015250565b7f537472696e67733a20686578206c656e67746820696e73756666696369656e74600082015250565b7f4552433732313a2063616c6c6572206973206e6f7420746f6b656e206f776e6560008201527f72206f7220617070726f76656400000000000000000000000000000000000000602082015250565b7f45434453413a20696e76616c6964207369676e6174757265206c656e67746800600082015250565b7f4552433732313a207472616e7366657220746f206e6f6e20455243373231526560008201527f63656976657220696d706c656d656e7465720000000000000000000000000000602082015250565b7f4552433732313a207472616e736665722066726f6d20696e636f72726563742060008201527f6f776e6572000000000000000000000000000000000000000000000000000000602082015250565b7f4552433732313a20746f6b656e20616c7265616479206d696e74656400000000600082015250565b7f1901000000000000000000000000000000000000000000000000000000000000600082015250565b7f4552433732313a207472616e7366657220746f20746865207a65726f2061646460008201527f7265737300000000000000000000000000000000000000000000000000000000602082015250565b7f4552433732313a20617070726f766520746f2063616c6c657200000000000000600082015250565b7f45434453413a20696e76616c6964207369676e6174757265202773272076616c60008201527f7565000000000000000000000000000000000000000000000000000000000000602082015250565b7f4552433732313a2061646472657373207a65726f206973206e6f74206120766160008201527f6c6964206f776e65720000000000000000000000000000000000000000000000602082015250565b7f45524337323155524953746f726167653a2055524920736574206f66206e6f6e60008201527f6578697374656e7420746f6b656e000000000000000000000000000000000000602082015250565b7f4552433732313a206d696e7420746f20746865207a65726f2061646472657373600082015250565b7f4552433732313a20696e76616c696420746f6b656e2049440000000000000000600082015250565b7f4552433732313a20617070726f76616c20746f2063757272656e74206f776e6560008201527f7200000000000000000000000000000000000000000000000000000000000000602082015250565b7f4552433732313a20617070726f76652063616c6c6572206973206e6f7420746f60008201527f6b656e206f776e6572206f7220617070726f76656420666f7220616c6c000000602082015250565b7f416363657373436f6e74726f6c3a206163636f756e7420000000000000000000600082015250565b7f206973206d697373696e6720726f6c6520000000000000000000000000000000600082015250565b7f416363657373436f6e74726f6c3a2063616e206f6e6c792072656e6f756e636560008201527f20726f6c657320666f722073656c660000000000000000000000000000000000602082015250565b61422681613ab6565b811461423157600080fd5b50565b61423d81613ac8565b811461424857600080fd5b50565b61425481613ad4565b811461425f57600080fd5b50565b61426b81613ade565b811461427657600080fd5b50565b61428281613b2a565b811461428d57600080fd5b5056fea264697066735822122075148c0713be10315093c27f12f9433f2e60ec1c281e11bc598bdf6f0b0312fc64736f6c63430008070033",
  "devdoc": {
    "kind": "dev",
    "methods": {
      "approve(address,uint256)": {
        "details": "See {IERC721-approve}."
      },
      "balanceOf(address)": {
        "details": "See {IERC721-balanceOf}."
      },
      "constructor": {
        "params": {
          "creator": "represents the entity that has created the vouchers to be redeemed for NFTs",
          "nftCollectionName": "represents the name of the NFT Collection",
          "nftCollectionSymbol": "represents the symbol of the NFTs belonging to a NFT Collection"
        }
      },
      "getApproved(uint256)": {
        "details": "See {IERC721-getApproved}."
      },
      "getRoleAdmin(bytes32)": {
        "details": "Returns the admin role that controls `role`. See {grantRole} and {revokeRole}. To change a role's admin, use {_setRoleAdmin}."
      },
      "grantRole(bytes32,address)": {
        "details": "Grants `role` to `account`. If `account` had not been already granted `role`, emits a {RoleGranted} event. Requirements: - the caller must have ``role``'s admin role. May emit a {RoleGranted} event."
      },
      "hasRole(bytes32,address)": {
        "details": "Returns `true` if `account` has been granted `role`."
      },
      "isApprovedForAll(address,address)": {
        "details": "See {IERC721-isApprovedForAll}."
      },
      "name()": {
        "details": "See {IERC721Metadata-name}."
      },
      "ownerOf(uint256)": {
        "details": "See {IERC721-ownerOf}."
      },
      "renounceRole(bytes32,address)": {
        "details": "Revokes `role` from the calling account. Roles are often managed via {grantRole} and {revokeRole}: this function's purpose is to provide a mechanism for accounts to lose their privileges if they are compromised (such as when a trusted device is misplaced). If the calling account had been revoked `role`, emits a {RoleRevoked} event. Requirements: - the caller must be `account`. May emit a {RoleRevoked} event."
      },
      "revokeRole(bytes32,address)": {
        "details": "Revokes `role` from `account`. If `account` had been granted `role`, emits a {RoleRevoked} event. Requirements: - the caller must have ``role``'s admin role. May emit a {RoleRevoked} event."
      },
      "safeTransferFrom(address,address,uint256)": {
        "details": "See {IERC721-safeTransferFrom}."
      },
      "safeTransferFrom(address,address,uint256,bytes)": {
        "details": "See {IERC721-safeTransferFrom}."
      },
      "setApprovalForAll(address,bool)": {
        "details": "See {IERC721-setApprovalForAll}."
      },
      "symbol()": {
        "details": "See {IERC721Metadata-symbol}."
      },
      "tokenURI(uint256)": {
        "details": "See {IERC721Metadata-tokenURI}."
      },
      "transferFrom(address,address,uint256)": {
        "details": "See {IERC721-transferFrom}."
      }
    },
    "version": 1
  },
  "userdoc": {
    "kind": "user",
    "methods": {
      "availableToWithdraw()": {
        "notice": "returns the amount of ETH (or equivalent crypto coin) available to withdraw"
      },
      "withdraw()": {
        "notice": "transfers all the pending withdrawls of the caller to the caller. Reverts if caller does not have CREATOR_ROLE"
      }
    },
    "version": 1
  },
  "storageLayout": {
    "storage": [
      {
        "astId": 414,
        "contract": "contracts/LazyNFT.sol:LazyNFT",
        "label": "_name",
        "offset": 0,
        "slot": "0",
        "type": "t_string_storage"
      },
      {
        "astId": 416,
        "contract": "contracts/LazyNFT.sol:LazyNFT",
        "label": "_symbol",
        "offset": 0,
        "slot": "1",
        "type": "t_string_storage"
      },
      {
        "astId": 420,
        "contract": "contracts/LazyNFT.sol:LazyNFT",
        "label": "_owners",
        "offset": 0,
        "slot": "2",
        "type": "t_mapping(t_uint256,t_address)"
      },
      {
        "astId": 424,
        "contract": "contracts/LazyNFT.sol:LazyNFT",
        "label": "_balances",
        "offset": 0,
        "slot": "3",
        "type": "t_mapping(t_address,t_uint256)"
      },
      {
        "astId": 428,
        "contract": "contracts/LazyNFT.sol:LazyNFT",
        "label": "_tokenApprovals",
        "offset": 0,
        "slot": "4",
        "type": "t_mapping(t_uint256,t_address)"
      },
      {
        "astId": 434,
        "contract": "contracts/LazyNFT.sol:LazyNFT",
        "label": "_operatorApprovals",
        "offset": 0,
        "slot": "5",
        "type": "t_mapping(t_address,t_mapping(t_address,t_bool))"
      },
      {
        "astId": 1480,
        "contract": "contracts/LazyNFT.sol:LazyNFT",
        "label": "_tokenURIs",
        "offset": 0,
        "slot": "6",
        "type": "t_mapping(t_uint256,t_string_storage)"
      },
      {
        "astId": 24,
        "contract": "contracts/LazyNFT.sol:LazyNFT",
        "label": "_roles",
        "offset": 0,
        "slot": "7",
        "type": "t_mapping(t_bytes32,t_struct(RoleData)19_storage)"
      },
      {
        "astId": 3594,
        "contract": "contracts/LazyNFT.sol:LazyNFT",
        "label": "pendingWithdrawls",
        "offset": 0,
        "slot": "8",
        "type": "t_mapping(t_address,t_uint256)"
      }
    ],
    "types": {
      "t_address": {
        "encoding": "inplace",
        "label": "address",
        "numberOfBytes": "20"
      },
      "t_bool": {
        "encoding": "inplace",
        "label": "bool",
        "numberOfBytes": "1"
      },
      "t_bytes32": {
        "encoding": "inplace",
        "label": "bytes32",
        "numberOfBytes": "32"
      },
      "t_mapping(t_address,t_bool)": {
        "encoding": "mapping",
        "key": "t_address",
        "label": "mapping(address => bool)",
        "numberOfBytes": "32",
        "value": "t_bool"
      },
      "t_mapping(t_address,t_mapping(t_address,t_bool))": {
        "encoding": "mapping",
        "key": "t_address",
        "label": "mapping(address => mapping(address => bool))",
        "numberOfBytes": "32",
        "value": "t_mapping(t_address,t_bool)"
      },
      "t_mapping(t_address,t_uint256)": {
        "encoding": "mapping",
        "key": "t_address",
        "label": "mapping(address => uint256)",
        "numberOfBytes": "32",
        "value": "t_uint256"
      },
      "t_mapping(t_bytes32,t_struct(RoleData)19_storage)": {
        "encoding": "mapping",
        "key": "t_bytes32",
        "label": "mapping(bytes32 => struct AccessControl.RoleData)",
        "numberOfBytes": "32",
        "value": "t_struct(RoleData)19_storage"
      },
      "t_mapping(t_uint256,t_address)": {
        "encoding": "mapping",
        "key": "t_uint256",
        "label": "mapping(uint256 => address)",
        "numberOfBytes": "32",
        "value": "t_address"
      },
      "t_mapping(t_uint256,t_string_storage)": {
        "encoding": "mapping",
        "key": "t_uint256",
        "label": "mapping(uint256 => string)",
        "numberOfBytes": "32",
        "value": "t_string_storage"
      },
      "t_string_storage": {
        "encoding": "bytes",
        "label": "string",
        "numberOfBytes": "32"
      },
      "t_struct(RoleData)19_storage": {
        "encoding": "inplace",
        "label": "struct AccessControl.RoleData",
        "members": [
          {
            "astId": 16,
            "contract": "contracts/LazyNFT.sol:LazyNFT",
            "label": "members",
            "offset": 0,
            "slot": "0",
            "type": "t_mapping(t_address,t_bool)"
          },
          {
            "astId": 18,
            "contract": "contracts/LazyNFT.sol:LazyNFT",
            "label": "adminRole",
            "offset": 0,
            "slot": "1",
            "type": "t_bytes32"
          }
        ],
        "numberOfBytes": "64"
      },
      "t_uint256": {
        "encoding": "inplace",
        "label": "uint256",
        "numberOfBytes": "32"
      }
    }
  }
}